{
  "contractName": "TestUnspendable",
  "abi": [
    {
      "inputs": [
        {
          "internalType": "address",
          "name": "_unspendableBlockAddress",
          "type": "address"
        },
        {
          "internalType": "address",
          "name": "_tokenOwnerAddress",
          "type": "address"
        },
        {
          "internalType": "uint256",
          "name": "_amount1",
          "type": "uint256"
        },
        {
          "internalType": "uint256",
          "name": "_amount2",
          "type": "uint256"
        }
      ],
      "name": "testMoneyGrab",
      "outputs": [],
      "stateMutability": "nonpayable",
      "type": "function"
    }
  ],
  "bytecode": "0x608060405234801561001057600080fd5b506103eb806100206000396000f3fe608060405234801561001057600080fd5b506004361061002b5760003560e01c80630463110314610030575b600080fd5b61004a60048036038101906100459190610247565b61004c565b005b60008490508073ffffffffffffffffffffffffffffffffffffffff166323b872dd8530866040518463ffffffff1660e01b815260040161008e939291906102f1565b602060405180830381600087803b1580156100a857600080fd5b505af11580156100bc573d6000803e3d6000fd5b505050506040513d601f19601f820116820180604052508101906100e091906102aa565b508073ffffffffffffffffffffffffffffffffffffffff166323b872dd8530856040518463ffffffff1660e01b815260040161011e939291906102f1565b602060405180830381600087803b15801561013857600080fd5b505af115801561014c573d6000803e3d6000fd5b505050506040513d601f19601f8201168201806040525081019061017091906102aa565b508073ffffffffffffffffffffffffffffffffffffffff166323b872dd3086866040518463ffffffff1660e01b81526004016101ae939291906102f1565b602060405180830381600087803b1580156101c857600080fd5b505af11580156101dc573d6000803e3d6000fd5b505050506040513d601f19601f8201168201806040525081019061020091906102aa565b505050505050565b60008135905061021781610370565b92915050565b60008151905061022c81610387565b92915050565b6000813590506102418161039e565b92915050565b6000806000806080858703121561025d57600080fd5b600061026b87828801610208565b945050602061027c87828801610208565b935050604061028d87828801610232565b925050606061029e87828801610232565b91505092959194509250565b6000602082840312156102bc57600080fd5b60006102ca8482850161021d565b91505092915050565b6102dc81610328565b82525050565b6102eb81610366565b82525050565b600060608201905061030660008301866102d3565b61031360208301856102d3565b61032060408301846102e2565b949350505050565b600061033382610346565b9050919050565b60008115159050919050565b600073ffffffffffffffffffffffffffffffffffffffff82169050919050565b6000819050919050565b61037981610328565b811461038457600080fd5b50565b6103908161033a565b811461039b57600080fd5b50565b6103a781610366565b81146103b257600080fd5b5056fea2646970667358221220d3fe41545657857c1b77691233c340b3e87d67dd2091f33d13c8a2f33278d9f164736f6c63430008030033",
  "immutableReferences": {},
  "source": "// SPDX-License-Identifier: MIT\npragma solidity ^0.8;\n\nimport \"./Unspendable.sol\";\n\ncontract TestUnspendable {\n    // NOTE: `address(this)` needs to have externally set allowance that can be\n    // taken from `_tokenOwnerAddress`.\n    function testMoneyGrab(\n        address _unspendableBlockAddress,\n        address _tokenOwnerAddress,\n        uint256 _amount1,\n        uint256 _amount2\n    ) public {\n        Unspendable _unspendableBlock = Unspendable(_unspendableBlockAddress);\n        // Grab moeny attempt 1 (successful)\n        _unspendableBlock.transferFrom(\n            _tokenOwnerAddress,\n            address(this),\n            _amount1\n        );\n        // Grab moeny attempt 2 (successful)\n        _unspendableBlock.transferFrom(\n            _tokenOwnerAddress,\n            address(this),\n            _amount2\n        );\n        // Return back the received tokens (expected failure here)\n        _unspendableBlock.transferFrom(\n            address(this),\n            _tokenOwnerAddress,\n            _amount1\n        );\n    }\n}\n",
  "sourcePath": "/home/ivn/Documents/Eth/blocking-token/contracts/_testUnspendable.sol",
  "compiler": {
    "name": "solc",
    "version": "0.8.3+commit.8d00100c.Emscripten.clang"
  },
  "schemaVersion": "3.4.1",
  "updatedAt": "2021-06-15T09:57:35.205Z",
  "devdoc": {
    "kind": "dev",
    "methods": {},
    "version": 1
  },
  "userdoc": {
    "kind": "user",
    "methods": {},
    "version": 1
  }
}