{
  "contractName": "TestUnspendable",
  "abi": [
    {
      "inputs": [
        {
          "internalType": "address",
          "name": "_unspendableBlockAddress",
          "type": "address"
        },
        {
          "internalType": "address",
          "name": "_tokenOwnerAddress",
          "type": "address"
        },
        {
          "internalType": "uint256",
          "name": "_amount1",
          "type": "uint256"
        },
        {
          "internalType": "uint256",
          "name": "_amount2",
          "type": "uint256"
        }
      ],
      "name": "testMoneyGrab",
      "outputs": [],
      "stateMutability": "nonpayable",
      "type": "function"
    }
  ],
  "bytecode": "0x608060405234801561001057600080fd5b50610412806100206000396000f3fe608060405234801561001057600080fd5b506004361061002b5760003560e01c80630463110314610030575b600080fd5b61004a60048036038101906100459190610245565b61004c565b005b60008490508073ffffffffffffffffffffffffffffffffffffffff166323b872dd8530866040518463ffffffff1660e01b815260040161008e939291906102ef565b602060405180830381600087803b1580156100a857600080fd5b505af11580156100bc573d6000803e3d6000fd5b505050506040513d601f19601f820116820180604052508101906100e091906102a8565b508073ffffffffffffffffffffffffffffffffffffffff166323b872dd8530856040518463ffffffff1660e01b815260040161011e939291906102ef565b602060405180830381600087803b15801561013857600080fd5b505af115801561014c573d6000803e3d6000fd5b505050506040513d601f19601f8201168201806040525081019061017091906102a8565b508073ffffffffffffffffffffffffffffffffffffffff1663a9059cbb85856040518363ffffffff1660e01b81526004016101ac929190610326565b602060405180830381600087803b1580156101c657600080fd5b505af11580156101da573d6000803e3d6000fd5b505050506040513d601f19601f820116820180604052508101906101fe91906102a8565b505050505050565b60008135905061021581610397565b92915050565b60008151905061022a816103ae565b92915050565b60008135905061023f816103c5565b92915050565b6000806000806080858703121561025b57600080fd5b600061026987828801610206565b945050602061027a87828801610206565b935050604061028b87828801610230565b925050606061029c87828801610230565b91505092959194509250565b6000602082840312156102ba57600080fd5b60006102c88482850161021b565b91505092915050565b6102da8161034f565b82525050565b6102e98161038d565b82525050565b600060608201905061030460008301866102d1565b61031160208301856102d1565b61031e60408301846102e0565b949350505050565b600060408201905061033b60008301856102d1565b61034860208301846102e0565b9392505050565b600061035a8261036d565b9050919050565b60008115159050919050565b600073ffffffffffffffffffffffffffffffffffffffff82169050919050565b6000819050919050565b6103a08161034f565b81146103ab57600080fd5b50565b6103b781610361565b81146103c257600080fd5b50565b6103ce8161038d565b81146103d957600080fd5b5056fea26469706673582212208c7708d4235cb32c4986a32342c8131b6440ecca2913a6c84b04acd84bff9fc264736f6c63430008030033",
  "immutableReferences": {},
  "source": "// SPDX-License-Identifier: MIT\npragma solidity ^0.8;\n\nimport \"./Unspendable.sol\";\n\ncontract TestUnspendable {\n    // NOTE: `address(this)` needs to have externally set allowance that can be\n    // taken from `_tokenOwnerAddress`.\n    function testMoneyGrab(\n        address _unspendableBlockAddress,\n        address _tokenOwnerAddress,\n        uint256 _amount1,\n        uint256 _amount2\n    ) public {\n        Unspendable _unspendableBlock = Unspendable(_unspendableBlockAddress);\n        // Grab moeny attempt 1 (successful)\n        _unspendableBlock.transferFrom(\n            _tokenOwnerAddress,\n            address(this),\n            _amount1\n        );\n        // Grab moeny attempt 2 (successful)\n        _unspendableBlock.transferFrom(\n            _tokenOwnerAddress,\n            address(this),\n            _amount2\n        );\n        // Return back the received tokens (expected failure here)\n        _unspendableBlock.transfer(_tokenOwnerAddress, _amount1);\n    }\n}\n",
  "sourcePath": "/home/ivn/Documents/Eth/blocking-token/contracts/_testUnspendable.sol",
  "compiler": {
    "name": "solc",
    "version": "0.8.3+commit.8d00100c.Emscripten.clang"
  },
  "schemaVersion": "3.4.1",
  "updatedAt": "2021-06-15T10:22:19.644Z",
  "devdoc": {
    "kind": "dev",
    "methods": {},
    "version": 1
  },
  "userdoc": {
    "kind": "user",
    "methods": {},
    "version": 1
  }
}